:100000000C9472000C9493000C9493000C94930045
:100010000C9493000C9493000C9493000C94930014
:100020000C9493000C9493000C9493000C94930004
:100030000C9493000C9493000C9493000C949300F4
:100040000C9493000C94EA010C94F5010C94930029
:100050000C94C8010C9493000C9493000C9493009E
:100060000C9493000C9493000C9493000C949300C4
:100070000C9493000C9493000C9493000C949300B4
:100080000C9493000C9493000C9493000C949300A4
:100090000C9493000C9493000C9493000C94930094
:1000A0000C9493000C9493000C9495000C94930082
:1000B0000C9493000C9493000C9493000C94930074
:1000C0000C9493000C9493000C9493000C94930064
:1000D0000C9493000C9493000C9493000C94930054
:1000E0000C94930011241FBECFEFD1E2DEBFCDBF31
:1000F00000E00CBF13E0A0E0B2E0E0EAF0E100E0D5
:100100000BBF02C007900D92A830B107D9F713E0DA
:10011000A8E0B3E001C01D92A930B107E1F70E9449
:10012000DC000C944E080C9400001F920F920FB646
:100130000F920BB60F9211242F933F934F935F931F
:100140006F937F938F939F93AF93BF93EF93FF939F
:10015000799B05C0809108038160809308030E9409
:10016000A401845F914028F4809108038260809309
:1001700008030E94A701845F914028F4809108033E
:100180008260809308038091080382FF02C00E946E
:10019000AE01FF91EF91BF91AF919F918F917F91B0
:1001A0006F915F914F913F912F910F900BBE0F90E8
:1001B0000FBE0F901F901895EF92FF921F93CF9351
:1001C000DF93F8940E94AA0188E093E00E94C101A5
:1001D00080B380BB80B380BB80B380BB80B380BB67
:1001E0006D9A759A0E9480010E94A3010E940E02DE
:1001F00080E00E94240280E00E9442021092A0004F
:100200001092A1001092A5001092A40084E89EE133
:100210009093A9008093A8008091A10088608093AA
:10022000A1008091A10085608093A100809172005F
:100230008260809372007894C0E2DEE480E9E82E68
:1002400081E0F82E50C0009709F456C088E093E092
:100250000E94B3010E948401615472448F40904017
:10026000C8F775981CE9812F0E942402812F0E94F3
:100270004202CE010197F1F71F5F1536A1F7759A7B
:1002800003C080E00E9465027999FBCF0E946D0255
:100290000E94BA018FEF9FEFF7013197F1F70197B5
:1002A000D9F70E94BE0103C081E00E9465027999DE
:1002B000FBCF0E946D02759814E6812F0E942402E4
:1002C000812F0E944202CE010197F1F711501B3994
:1002D000A1F7759A88E093E00E94C101809108031C
:1002E0008D7F8093080380910803282F2E7F992704
:1002F00087FD909582709070222309F0A4CFFFCFE4
:10030000099A81B181B90895109A11980099FECF88
:1003100020E030E040E050E080E0119A220F331FEF
:10032000441F551F1198009B04C02F5F3F4F4F4F34
:100330005F4F8F5F883189F72095309540955095B4
:10034000B901CA010895089585E090E0089585E017
:1003500090E00895089A089A089A089582B191E069
:10036000892782B90895FC01109A109A80818460CF
:100370008083089582B182B9109A0895109A109AD4
:100380000895FC01109A109880818B7F80830895D6
:100390001F920F920FB60F920BB60F9211248F93EC
:1003A0009F93EF93FF9384E294E69093850080936C
:1003B0008400739AE2E0F1E0808188608083FF919D
:1003C000EF919F918F910F900BBE0F900FBE0F90EA
:1003D0001F9018951F920F920FB60F9211247398C9
:1003E0000F900FBE0F901F9018951F920F920FB68F
:1003F0000F920BB60F9211248F93EF93FF93E2E0CD
:10040000F1E08081877F8083FF91EF918F910F9042
:100410000BBE0F900FBE0F901F9018956B9AE1E0E6
:10042000F1E08081886080831092800082E0809378
:10043000810087E080936F0084E294E690938500CA
:100440008093840078940895682F8C59893CC8F46F
:10045000772767FD7095872F972F0E94700520E002
:1004600030E040E651E40E94460420E038EB4FEDD6
:1004700056E40E9419040E947002709389006093F0
:1004800088000895682F8C59893CC8F4772767FD48
:100490007095872F972F0E94700520E030E040E68E
:1004A00051E40E94460420E038EB4FED56E40E94F0
:1004B00019040E94700270938B0060938A00089563
:1004C000859A859A75987598089518161CF4759AEA
:1004D000759808957598759A089575987598089502
:1004E000EF92FF920F931F937B018C0120E030E08D
:1004F00040E05FE40E94400588238CF0C801B7010A
:1005000020E030E040E05FE40E94E8030E94CE0576
:100510009B01AC01205030404040504806C0C8010B
:10052000B7010E94CE059B01AC01B901CA011F9120
:100530000F91FF90EF900895A0E0B0E0E2EAF2E0C2
:100540000C941708DC012B01FA019C91923008F4FD
:1005500039C1EB018881823008F433C1943069F4E9
:10056000843009F02FC111969C91119789819817B9
:1005700009F428C1A0E0B2E025C1843009F421C10A
:100580008230A9F4923009F01DC19A01AD0188E0D2
:10059000EA010990AE01E90109929E018150C1F77B
:1005A000E201898111969C918923818308C192304F
:1005B00009F407C112962D903C901397EB018A81A4
:1005C0009B811496AD90BD90CD90DC901797EC80F8
:1005D000FD800E811F819101281B390BB90137FF66
:1005E00004C066277727621B730B603271050CF01D
:1005F00061C0121613066CF537014801062E04C0BF
:1006000096948794779467940A94D2F721E030E027
:1006100040E050E004C0220F331F441F551F6A956D
:10062000D2F721503040404050402E213F214023FE
:100630005123211531054105510521F021E030E01C
:1006400040E050E079018A01E628F72808291929B5
:100650003CC0232BD1F1260E371E35014601062E54
:1006600004C096948794779467940A94D2F721E013
:1006700030E040E050E004C0220F331F441F551FFC
:100680006A95D2F721503040404050402A213B210A
:100690004C215D21211531054105510521F021E055
:1006A00030E040E050E059016A01A628B728C82888
:1006B000D9280BC0821593052CF01C01AA24BB2459
:1006C000650103C0EE24FF24870111969C91D2019D
:1006D00011968C91981709F445C0992339F0A80117
:1006E00097012A193B094C095D0906C0A60195012D
:1006F0002E193F09400B510B57FD08C01182338260
:10070000228224833583468357831DC081E0818301
:100710003382228288279927DC01821B930BA40B4A
:10072000B50B84839583A683B7830DC0220F331F37
:10073000441F551F248335834683578382819381C9
:100740000197938382832481358146815781DA0121
:10075000C9010197A109B1098F5F9F4FAF4FBF43F7
:1007600028F30BC0918333822282EA0CFB1C0C1D00
:100770001D1DE482F5820683178383E08083248134
:1007800035814681578157FF1AC0C901AA2797FDB5
:10079000A095BA2F81709070A070B0705695479553
:1007A00037952795822B932BA42BB52B8483958388
:1007B000A683B78382819381019693838283DF012D
:1007C00001C0D201CD01CDB7DEB7E2E10C94330810
:1007D000A0E2B0E0EEEEF3E00C94230869837A83A4
:1007E0008B839C832D833E834F835887E9E0EE2ED5
:1007F000F12CEC0EFD1ECE010196B7010E944607BA
:100800008E010F5E1F4FCE010596B8010E9446076C
:100810008A8991E089278A8BC701B801AE01475EBA
:100820005F4F0E949C020E947106A096E6E00C9425
:100830003F08A0E2B0E0EFE1F4E00C942308698304
:100840007A838B839C832D833E834F835887F9E083
:10085000EF2EF12CEC0EFD1ECE010196B7010E9489
:1008600046078E010F5E1F4FCE010596B8010E940C
:100870004607C701B801AE01475E5F4F0E949C0268
:100880000E947106A096E6E00C943F08A0E2B0E05A
:10089000ECE4F4E00C94170869837A838B839C83DF
:1008A0002D833E834F835887CE010196BE01675F3B
:1008B0007F4F0E944607CE010596BE016F5E7F4FB7
:1008C0000E9446079985923088F089898230C8F065
:1008D000943019F4823051F404C0843029F49230F9
:1008E00081F480E092E0C6C0923049F420E09A851D
:1008F0008A89981321E02A87CE010996BBC08230ED
:1009000049F420E09A858A89981321E02A8BCE0148
:100910004196B0C02D843E844F8458886D887E886F
:100920008F88988CEE24FF248701AA24BB246501BC
:1009300040E050E060E070E0E0E0F0E0C101817094
:100940009070892BE9F0E60CF71C081D191D9A011F
:10095000AB012A0D3B1D4C1D5D1D80E090E0A0E029
:10096000B0E0E614F7040805190520F481E090E0F2
:10097000A0E0B0E0BA01A901480F591F6A1F7B1F10
:10098000AA0CBB1CCC1CDD1C97FE08C081E090E0CB
:10099000A0E0B0E0A82AB92ACA2ADB2A3196E032C0
:1009A000F10549F0660C771C881C991C56944794F5
:1009B00037942794C3CFFA85EA892B893C898B85A4
:1009C0009C85280F391F2E5F3F4F17C0CA018170C9
:1009D0009070892B61F016950795F794E79480E065
:1009E00090E0A0E0B0E8E82AF92A0A2B1B2B7695C4
:1009F0006795579547952F5F3F4F77FDE7CF0CC021
:100A0000440F551F661F771F17FD4160EE0CFF1C3A
:100A1000001F111F21503040403090E0590790E0F6
:100A2000690790E4790760F32B8F3C8FDB01CA01E3
:100A30008F779070A070B07080349105A105B105DA
:100A400061F447FD0AC0E114F1040105110529F024
:100A5000405C5F4F6F4F7F4F40781A8EFE1711F04A
:100A600081E08A8F4D8F5E8F6F8F78A383E0898FAF
:100A7000CE0149960E947106A096E2E10C943308DB
:100A8000A8E1B0E0E6E4F5E00C94230869837A83FA
:100A90008B839C832D833E834F83588789E0E82E88
:100AA000F12CEC0EFD1ECE010196B7010E94460707
:100AB0008E010F5E1F4FCE010596B8010E944607BA
:100AC0008985823040F08989823028F0C701B801D9
:100AD0000E94BE0701C08FEF6896E6E00C943F08C5
:100AE000A8E0B0E0E6E7F5E00C9420089B01AC013B
:100AF00083E08983DA01C9018827B7FD83959927A7
:100B0000AA27BB27B82E211531054105510519F437
:100B100082E089833AC08823A9F0203080E038073A
:100B200080E0480780E8580729F460E070E080E042
:100B30009FEC30C0EE24FF248701E21AF30A040B75
:100B4000150B02C079018A018EE1C82ED12CDC82FE
:100B5000CB82ED82FE820F831887C801B7010E9405
:100B6000220601971816190684F4082E04C0EE0C0C
:100B7000FF1C001F111F0A94D2F7ED82FE820F8323
:100B80001887C81AD90ADC82CB82BA82CE010196B4
:100B90000E9471062896E9E00C943C08ACE0B0E0B5
:100BA000E4EDF5E00C94270869837A838B839C83BA
:100BB000CE010196BE016B5F7F4F0E9446078D817B
:100BC000823061F1823050F1843021F48E818823AB
:100BD00051F12EC02F81388537FD20C06E812F3115
:100BE00031051CF06623F9F023C08EE190E0821BF2
:100BF000930B29853A854B855C8504C056954795AE
:100C0000379527958A95D2F76623B1F05095409590
:100C1000309521953F4F4F4F5F4F0EC020E030E0A1
:100C200040E050E009C02FEF3FEF4FEF5FE704C017
:100C300020E030E040E050E8B901CA012C96E2E043
:100C40000C944308EF92FF920F931F937B018C014A
:100C500080E0E81680E0F80681E0080780E01807E9
:100C600088F48FEFE816F1040105110531F028F042
:100C700088E090E0A0E0B0E017C080E090E0A0E065
:100C8000B0E012C080E0E81680E0F80680E00807D7
:100C900081E0180728F088E190E0A0E0B0E004C00F
:100CA00080E190E0A0E0B0E020E230E040E050E001
:100CB000281B390B4A0B5B0B04C016950795F7945C
:100CC000E7948A95D2F7F701E85FFD4F8081281BF2
:100CD000310941095109C9011F910F91FF90EF900E
:100CE0000895DF92EF92FF920F931F93FC01E4802F
:100CF000F58006811781D1808081823048F480E0C0
:100D000090E0A0E1B0E0E82AF92A0A2B1B2BA5C04D
:100D1000843009F49FC0823021F4EE24FF2487013F
:100D200005C0E114F1040105110519F4E0E0F0E05B
:100D300096C0628173819FEF623879070CF05BC0C7
:100D400022E83FEF261B370B2A3131052CF020E03B
:100D500030E040E050E02AC0B801A701022E04C0F4
:100D600076956795579547950A94D2F781E090E07C
:100D7000A0E0B0E004C0880F991FAA1FBB1F2A95EE
:100D8000D2F70197A109B1098E219F21A023B12398
:100D90000097A105B10521F081E090E0A0E0B0E06E
:100DA0009A01AB01282B392B4A2B5B2BDA01C901A5
:100DB0008F779070A070B07080349105A105B10557
:100DC00039F427FF09C0205C3F4F4F4F5F4F04C0ED
:100DD000215C3F4F4F4F5F4FE0E0F0E02030A0E05C
:100DE0003A07A0E04A07A0E45A0710F0E1E0F0E07B
:100DF00079018A0127C06038710564F5FB01E1586B
:100E0000FF4FD801C7018F779070A070B070803409
:100E10009105A105B10539F4E7FE0DC080E490E02D
:100E2000A0E0B0E004C08FE390E0A0E0B0E0E80E06
:100E3000F91E0A1F1B1F17FF05C016950795F7948B
:100E4000E794319687E016950795F794E7948A958D
:100E5000D1F705C0EE24FF248701EFEFF0E06E2FFD
:100E6000679566276795902F9F77D794DD24D79451
:100E70008E2F8695492F462B582F5D29B701CA0121
:100E80001F910F91FF90EF90DF900895FC01DB011F
:100E9000408151812281622F6F7770E0221F2227CB
:100EA000221F9381892F880F822B282F30E0991FD2
:100EB0009927991F11969C93119721153105A9F532
:100EC000411551056105710511F482E037C082E8D2
:100ED0009FEF13969C938E9312979A01AB0167E054
:100EE000220F331F441F551F6A95D1F783E08C935F
:100EF0000DC0220F331F441F551F12968D919C91D8
:100F00001397019713969C938E931297203080E04D
:100F1000380780E0480780E4580758F314962D936B
:100F20003D934D935C93179708952F3F310579F4C6
:100F3000411551056105710519F484E08C930895FC
:100F400064FF03C081E08C9312C01C9210C02F5725
:100F5000304013963C932E93129783E08C9387E056
:100F6000440F551F661F771F8A95D1F7706414963A
:100F70004D935D936D937C93179708951F93DC01B8
:100F8000FB019C91923008F447C08081823008F4C4
:100F900043C0943051F411961C91843099F58181AD
:100FA000682F70E0611B71093FC0843021F09230DE
:100FB00031F48230B9F18181882389F12DC01196F5
:100FC0001C9111978230F1F081811817D9F4129693
:100FD0002D913C911397828193818217930794F00E
:100FE00028173907BCF014968D919D910D90BC91F6
:100FF000A02D2481358146815781281739074A075A
:101000005B0718F4112341F00AC082179307A40765
:10101000B50740F4112319F061E070E005C06FEFEF
:101020007FEF02C060E070E0CB011F9108952F9226
:101030003F924F925F926F927F928F929F92AF9268
:10104000BF92CF92DF92EF92FF920F931F93CF93B5
:10105000DF93CDB7DEB7CA1BDB0B0FB6F894DEBF4C
:101060000FBECDBF19942A88398848885F846E8462
:101070007D848C849B84AA84B984C884DF80EE80BC
:10108000FD800C811B81AA81B981CE0FD11D0FB6C5
:10109000F894DEBF0FBECDBFED010895F894FFCFE9
:1010A000000000000000000000010202030303032F
:1010B00004040404040404040505050505050505E8
:1010C00005050505050505050606060606060606C8
:1010D00006060606060606060606060606060606B0
:1010E0000606060606060606070707070707070798
:1010F0000707070707070707070707070707070780
:10110000070707070707070707070707070707076F
:10111000070707070707070707070707070707075F
:101120000707070707070707080808080808080847
:10113000080808080808080808080808080808082F
:10114000080808080808080808080808080808081F
:10115000080808080808080808080808080808080F
:1011600008080808080808080808080808080808FF
:1011700008080808080808080808080808080808EF
:1011800008080808080808080808080808080808DF
:1011900008080808080808080808080808080808CF
:0811A000080808080808080807
:00000001FF
