:100000000C9472000C9486000C9486000C9486006C
:100010000C9486000C9486000C9486000C94860048
:100020000C9486000C9486000C9486000C94860038
:100030000C9486000C9486000C9486000C94860028
:100040000C9486000C9443010C945C010C94860083
:100050000C941F010C9486000C9486000C9486006E
:100060000C9486000C9486000C9486000C948600F8
:100070000C9486000C9486000C9486000C948600E8
:100080000C9486000C9486000C9486000C948600D8
:100090000C9486000C9486000C9486000C948600C8
:1000A0000C9486000C9486000C9488000C948600B6
:1000B0000C9486000C9486000C9486000C948600A8
:1000C0000C9486000C9486000C9486000C94860098
:1000D0000C9486000C9486000C9486000C94860088
:1000E0000C94860011241FBECFEFD1E2DEBFCDBF3E
:1000F00000E00CBF22E0A0E0B2E001C01D92A13000
:10010000B207E1F70E94DB010C9454040C94000048
:100110001F920F920FB60F9211240BB60F922F93CE
:100120003F934F935F936F937F938F939F93AF937F
:10013000BF93EF93FF93799B05C08091000281608C
:10014000809300027A9B05C08091000282608093B8
:1001500000024F9B05C080910002826080930002E4
:10016000319905C0809100028260809300028091E5
:10017000000282FF15C00E94FE00FF91EF91BF9127
:10018000AF919F918F917F916F915F914F913F912F
:100190002F910F900BBE0F900FBE0F901F901895D0
:1001A00082B182B9EACF999A83B383BB0895A09AAA
:1001B000A1989099FECF28E180E090E0DC01A19A1F
:1001C000880F991FAA1FBB1FA198909B03C001967F
:1001D000A11DB11D215099F7BC01CD01609570950D
:1001E000809590950895579839985F9A419A089507
:1001F0000F9A0B9A3C9A0D9A3E9A089582B18058B4
:1002000082B90895FC01139A449A159A469A9081EE
:1002100094609083089513981598449A469A089587
:10022000139A449A159A469A0895FC01139A449891
:10023000159A469890819B7F9083179808951F92F6
:100240000F920FB60F9211240BB60F928F939F93BC
:10025000EF93FF9384E294E690938500809384006B
:10026000EBE0F1E080818062808380818068808320
:10027000FF91EF919F918F910F900BBE0F900FBE4A
:100280000F901F9018951F920F920FB60F92112486
:100290000BB60F928F93EF93FF93EBE0F1E0808129
:1002A0008F7D8083FF91EF918F910F900BBE0F9008
:1002B0000FBE0F901F9018951F920F920FB60F92BE
:1002C00011240BB60F928F93EF93FF93EBE0F1E0C5
:1002D00080818F778083FF91EF918F910F900BBE7C
:1002E0000F900FBE0F901F901895EAE0F1E080810B
:1002F000806280838081806880831092800082E0A9
:100300008093810087E080936F0084E294E690936D
:100310008500809384007894089594E6980F993C22
:10032000D0F4682F062E000C770B880B990B0E94D7
:100330005B0320E030E040E651E40E94E70320E068
:1003400038EB4FED56E40E94BE020E942A037093E0
:10035000890060938800089594E6980F993CD0F442
:10036000682F062E000C770B880B990B0E945B03FD
:1003700020E030E040E651E40E94E70320E038EB63
:100380004FED56E40E94BE020E942A0370938B0038
:1003900060938A000895219A239A299A2B9A0895A6
:1003A00018161CF4299A2B98089529982B9A0895C9
:1003B00029982B980895F8940E94F80080E092E024
:1003C0000E94150180B380BB80B380BB84B184B927
:1003D00084B184B9289A2A9A6D9A759A0E94D3009A
:1003E0000E94F3000E9475018EEC0E948D018EEC3C
:1003F0000E94AC011092A0001092A1001092A500E2
:100400001092A40084E89EE19093A9008093A80034
:100410008091A10088608093A1008091A1008560F7
:100420008093A10080917200826080937200789422
:100430004F9B02C03199FCCF80E092E00E94020104
:100440002FEF37EA81E6215030408040E1F700C0CD
:10045000000075989FEF23ED30E39150204030402D
:10046000E1F700C00000759A8FEF93ED20E3815013
:1004700090402040E1F700C00000CEEC8C2F0E949D
:100480008D018C2F0E94AC018FE19EE40197F1F762
:1004900000C00000CF5FC53689F79FEF23ED30E342
:1004A000915020403040E1F700C0000018995DC035
:1004B0000E94D8018FEF93ED20E3815090402040BF
:1004C000E1F700C000000E940B013AEA86EE96E9CF
:1004D00021E03150804090402040D9F700000E9438
:1004E00010013FEF83ED90E3315080409040E1F701
:1004F00000C000001A993DC00E94D8012FEF33EDD3
:1005000080E3215030408040E1F700C00000759842
:100510009FEF23ED30E3915020403040E1F700C0E1
:100520000000C4E68C2F0E948D018C2F0E94AC012C
:100530008FE19EE40197F1F700C00000C150CD3C6F
:1005400089F79FEF23ED30E3915020403040E1F7F1
:1005500000C00000759A80E092E00E941501809131
:1005600000028D7F8093000263CF80E00E94D00163
:100570009DCF81E00E94D001BDCF5058BB27AA2754
:100580000E94D5020C94AD030E949F0338F00E9494
:10059000A60320F039F49F3F19F426F40C949C0331
:1005A0000EF4E095E7FB0C949603E92F0E94BE033E
:1005B00058F3BA17620773078407950720F079F498
:1005C000A6F50C94E0030EF4E0950B2EBA2FA02DA7
:1005D0000B01B90190010C01CA01A0011124FF27F0
:1005E000591B99F0593F50F4503E68F11A16F040EB
:1005F000A22F232F342F4427585FF3CF46953795EA
:100600002795A795F0405395C9F77EF41F16BA0BAE
:10061000620B730B840BBAF09150A1F0FF0FBB1F5C
:10062000661F771F881FC2F70EC0BA0F621F731FA5
:10063000841F48F4879577956795B795F7959E3F02
:1006400008F0B0CF9395880F08F09927EE0F979593
:10065000879508950E94C60388F09F5798F0B92F98
:100660009927B751B0F0E1F0660F771F881F991FE7
:100670001AF0BA95C9F714C0B13091F00E94E003A6
:10068000B1E008950C94E003672F782F8827B85FB6
:1006900039F0B93FCCF3869577956795B395D9F73F
:1006A0003EF490958095709561957F4F8F4F9F4F49
:1006B0000895E89409C097FB3EF490958095709555
:1006C00061957F4F8F4F9F4F9923A9F0F92F96E99E
:1006D000BB279395F695879577956795B795F11113
:1006E000F8CFFAF4BB0F11F460FF1BC06F5F7F4FB0
:1006F0008F4F9F4F16C0882311F096E911C07723C2
:1007000021F09EE8872F762F05C0662371F096E8CA
:10071000862F70E060E02AF09A95660F771F881F99
:10072000DAF7880F9695879597F9089597F99F6757
:1007300080E870E060E008959FEF80EC0895002469
:100740000A941616170618060906089500240A9436
:1007500012161306140605060895092E0394000CBC
:1007600011F4882352F0BB0F40F4BF2B11F460FF4B
:1007700004C06F5F7F4F8F4F9F4F089557FD905874
:10078000440F551F59F05F3F71F04795880F97FB55
:10079000991F61F09F3F79F087950895121613060F
:1007A0001406551FF2CF4695F1DF08C0161617063E
:1007B0001806991FF1CF8695710561050894089573
:1007C000E894BB2766277727CB0197F908950E9405
:1007D000FA030C94AD030E949F0338F00E94A60315
:1007E00020F0952311F00C9496030C949C03112493
:1007F0000C94E1030E94BE0370F3959FC1F3950F23
:1008000050E0551F629FF001729FBB27F00DB11D94
:10081000639FAA27F00DB11DAA1F649F6627B00D24
:10082000A11D661F829F2227B00DA11D621F739F0D
:10083000B00DA11D621F839FA00D611D221F749F1B
:100840003327A00D611D231F849F600D211D822F62
:10085000762F6A2F11249F5750409AF0F1F0882389
:100860004AF0EE0FFF1FBB1F661F771F881F9150B6
:100870005040A9F79E3F510580F00C9496030C94CC
:10088000E1035F3FE4F3983ED4F38695779567954F
:10089000B795F795E7959F5FC1F7FE2B880F911DE0
:0C08A0009695879597F90895F894FFCF7E
:00000001FF
